:1000C70010083F065B4F666D7D077F6F777C395E53
:0600D7007971021800001F
:1000F400AD071FED600BE4FEEEC3946E50F20E806C
:01010400F703
:0101050022D7
:0B010600758905E4F58AF58CD28C2287
:10008F00AC07E4F5A0C2B0D2B1EC75F00A8475F0FC
:10009F000A84740825F0F8E6F5A07F1E1200F4E438
:1000AF00F5A0D2B0C2B1EC75F00A84740825F0F84F
:0800BF00E6F5A07F1E0200F42B
:1000DE001201067F00AD8AEF2DF519E433F518AF46
:0600EE001912008F80EDE5
:03000000020003F8
:0C000300787FE4F6D8FD75811902004AF0
:10000F000200DEE493A3F8E493A34003F68001F229
:10001F0008DFF48029E493A3F85407240CC8C333F2
:10002F00C4540F4420C8834004F456800146F6DFC1
:10003F00E4800B01020408102040809000C7E47E8A
:10004F00019360BCA3FF543F30E509541FFEE493B6
:10005F00A360010ECF54C025E060A840B8E493A37D
:10006F00FAE493A3F8E493A3C8C582C8CAC583CAA8
:10007F00F0A3C8C582C8CAC583CADFE9DEE780BE60
:0100DD000022
:00000001FF
