:1000D90010083F065B4F666D7D077F6F777C395E41
:0200E90079712B
:1000030053877F75985053890F438920758BFD75EE
:0B0013008DFDC2ABD28ED2ACD2AF226A
:1000B20012000320B2100FBF1002E4FF8F99309993
:1000C200FDC29930B2FDE518C3941050E6740825BC
:0700D20018F8E6F5A080DC40
:030023000200ECEC
:0900EC00309805859918C298327C
:03000000020026D5
:0C002600787FE4F6D8FD75811802006DAB
:100032000200B2E493A3F8E493A34003F68001F232
:1000420008DFF48029E493A3F85407240CC8C333CF
:10005200C4540F4420C8834004F456800146F6DF9E
:10006200E4800B01020408102040809000D9E47E55
:10007200019360BCA3FF543F30E509541FFEE49393
:10008200A360010ECF54C025E060A840B8E493A35A
:10009200FAE493A3F8E493A3C8C582C8CAC583CA85
:1000A200F0A3C8C582C8CAC583CADFE9DEE780BE3D
:0100EB000014
:00000001FF
