:1001BB00100C3F065B4F666D7D077F6F777C395E5A
:0E01CB0079710208001E021E0018020A000DC3
:1001DA00EF1FAA0670011E4A600BE4FDEDC3946E80
:0501EA0050EE0D80F74E
:0101EF0022ED
:1001F0005389F0438902758A9C758C9CC28DD28C80
:05020000D2A9D2AF22DB
:10009A001201F0E4FBA8037401088002C333D8FC00
:1000AA00F4F5B0EB1460161460191460231460267A
:1000BA0014603024057039AE0AAF0B800AAE0AAF5D
:1000CA000B8024AE1EAF1F7C007D0A1201668017CA
:1000DA00AE1EAF1F8011AE08AF097C007D0A120167
:1000EA00668004AE08AF097C007D0A1201668D2085
:1000FA00740C2520F8E6F5A07F017E001201DA0BC8
:07010A00EB64067090808C8D
:03000B00020111DE
:10011100C0E0C0D0051DE51D7002051CB41041E50D
:100121001CB4273C751C00751D000509E50970020A
:100131000508643C45087028F508F509051FE51F09
:100141007002051E643C451E7016F51EF51F050B59
:10015100E50B7002050A6418450A7004F50AF50BEF
:05016100D0D0D0E03217
:0300000002000EED
:0C000E00787FE4F6D8FD758120020055D3
:10016600BC000BBE0029EF8DF084FFADF022E4CC7D
:10017600F875F008EF2FFFEE33FEEC33FCEE9DEC46
:10018600984005FCEE9DFE0FD5F0E9E4CEFD22ED8C
:10019600F8F5F0EE8420D21CFEADF075F008EF2FD6
:1001A600FFED33FD4007985006D5F0F222C398FDC7
:0501B6000FD5F0EA2264
:10001A0002009AE493A3F8E493A34003F68001F262
:10002A0008DFF48029E493A3F85407240CC8C333E7
:10003A00C4540F4420C8834004F456800146F6DFB6
:10004A00E4800B01020408102040809001BBE47E8A
:10005A00019360BCA3FF543F30E509541FFEE493AB
:10006A00A360010ECF54C025E060A840B8E493A372
:10007A00FAE493A3F8E493A3C8C582C8CAC583CA9D
:10008A00F0A3C8C582C8CAC583CADFE9DEE780BE55
:0101D9000025
:00000001FF
