:1001BC00100E3F065B4F666D7D077F6F777C395E57
:1001CC0079710208001E02200018020C000D020AB0
:0201DC00000021
:1001DF00EF1FAA0670011E4A600BE4FDEDC3946E7B
:0501EF0050EE0D80F749
:0101F40022E8
:1001F5005389F0438902758A9C758C9CC28DD28C7B
:05020500D2A9D2AF22D6
:10009A001201F5E4FBA8037401088002C333D8FCFB
:1000AA00F4F5B0EB1460161460191460231460267A
:1000BA0014603024057039AE0CAF0D800AAE0CAF57
:1000CA000D8024AE20AF217C007D0A1201678017C3
:1000DA00AE20AF218011AE08AF097C007D0A120163
:1000EA00678004AE08AF097C007D0A1201678D2281
:1000FA00740E2522F8E6F5A07F017E001201DF0BBF
:07010A00EB64067090808C8D
:03000B00020111DE
:10011100C0E0051FE51F7002051E64107004E51E96
:100121006427703FF50A750B01F51EF51F0509E5FA
:100131000970020508643C45087028F508F50905B1
:1001410021E52170020520643C45207016F520F55B
:1001510021050DE50D7002050C6418450C7004F5C0
:060161000CF50DD0E032A8
:0300000002000EED
:0C000E00787FE4F6D8FD758122020055D1
:10016700BC000BBE0029EF8DF084FFADF022E4CC7C
:10017700F875F008EF2FFFEE33FEEC33FCEE9DEC45
:10018700984005FCEE9DFE0FD5F0E9E4CEFD22ED8B
:10019700F8F5F0EE8420D21CFEADF075F008EF2FD5
:1001A700FFED33FD4007985006D5F0F222C398FDC6
:0501B7000FD5F0EA2263
:10001A0002009AE493A3F8E493A34003F68001F262
:10002A0008DFF48029E493A3F85407240CC8C333E7
:10003A00C4540F4420C8834004F456800146F6DFB6
:10004A00E4800B01020408102040809001BCE47E89
:10005A00019360BCA3FF543F30E509541FFEE493AB
:10006A00A360010ECF54C025E060A840B8E493A372
:10007A00FAE493A3F8E493A3C8C582C8CAC583CA9D
:10008A00F0A3C8C582C8CAC583CADFE9DEE780BE55
:0101DE000020
:00000001FF
