:1000160075A0007FE87E031200357FE87E0312009C
:0F0026003575A0FF7FE87E031200357FE87E036B
:10003500EF1FAA0670011E4A600BE4FDEDC3946E26
:0500450050EE0D80F7F4
:01004A002293
:1000A100C288C28AD2AAD2A8D2BAD2AF75A0FF8022
:0100B100FB53
:0300030002007F79
:10007F00C0E0C0D075D000C002C005C006C00712D6
:10008F000016120016D007D006D005D002D0D0D05F
:02009F00E0324D
:0300130002004B9D
:10004B00C0E0C0D075D000C002C005C006C00775A7
:10005B00A05512002A75A0AA12002A75A0551200ED
:10006B002A75A0AA12002AD007D006D005D002D03C
:04007B00D0D0E032CF
:03000000020006F5
:0C000600787FE4F6D8FD7581070200A1A8
:00000001FF
