:030B1D002566004A
:100AEB0010083F065B4F666D7D077F6F777C395E25
:020AFB0079710F
:100AFE00AD071FED600BE4FEEEC3946E50F20E8058
:010B0E00F7EF
:010B0F0022C3
:100A7A00EF24FE601514601714601914601B1460CB
:100A8A001D2405702375B0FE801775B0FD801275A0
:100A9A00B0FB800D75B0F7800875B0EF800375B0B4
:100AAA00DF74082DF8E6F5A0BB010343A080EFC36D
:0A0ABA00940650057F08120AFE2280
:100A1600E4F529752DFF752E0B752F1D8F338E323C
:100A26008D318C30FB7A007922120577E4F9FA745D
:100A3600222AF8E6B42E1679018A29AF0274212AF1
:100A4600F8E624D0FDE434FFFC7B01801FB90109E0
:100A560074222AF8E664306016EA04C399FF742209
:100A66002AF8E624D0FDE434FFFCE4FB120A7A0AF5
:030A7600BA08BCFF
:010A7900225A
:0D0B10007F147EAE7DC77C3F120A1680F375
:10051B00E541242DF8E6054122782A300702782D93
:10052B00E475F0011204E502048D2000EB7F2ED25E
:10053B00008018EF540F2490D43440D4FF30040BB8
:10054B00EF24BFB41A0050032461FFE5426002158B
:10055B00420545E5457002054430070D782AE475E0
:10056B00F0011204E5EF0204D3020AC47403D207AC
:10057B008003E4C207F5418B2A8A2B892CE4F542D0
:10058B00F544F545E54260077F2012055680F57569
:10059B0043FFC201C200C202C203C205C206C208A7
:1005AB00120524FF700D3007057F00120567AF455C
:1005BB00AE4422B4255FC2D5C204120524FF24D059
:1005CB00B40A00501A75F00A784230D50508B6FF08
:1005DB000106C6A426F620D5047002D20380D924C6
:1005EB00CFB41A00EF5004C2E5D204020854D20172
:1005FB0080C6D20080C0D20280BCD2D580BAD205D0
:10060B0080B47F201205562002077401B5420040CA
:10061B00F112051BFF12055602058FD208D2068078
:10062B009512051BFB12051BFA12051BF94A4B70A1
:10063B0006794B7A097BFF20022EE542602A7E0069
:10064B008E827583001204A660060EEE654370F071
:10065B00C2D5EBC0E0EAC0E0E9C0E0EE1208B4D0CE
:10066B00E0F9D0E0FAD0E0FB12048DFF60AAEBC0FA
:10067B00E0EAC0E0E9C0E0120556D0E02401F9D071
:10068B00E03400FAD0E0FBE5430460DCD543D980CD
:10069B0087D20280A212089760F7E543700104121B
:1006AB000003A943600DE543600914F54312093EAD
:1006BB00EF60F3EA30E702F404C3995077EAF425CC
:1006CB00430430E701E404F543800D12089760C141
:1006DB00EA05432543120003EA7840F630E701E4CC
:1006EB00254304D54304200501141208B4E4C0E0EB
:1006FB0012093E7840E6601320E70714F612053E18
:10070B00802204F6D0E014C0E07F0012053EE543E2
:10071B0060071205351543800B300503120535D0E4
:10072B00E002058FD0E00480C512089760A0E54376
:10073B00041200037840EAF6E54320050260010449
:05074B0024041208B4B3
:1007500074FF04C0E012093E12053EE54320050285
:100760006003120535D0E0B543E87F4512054878AF
:1007700040E67F2B30E7047F2DF404C0E0120556DD
:10078000D0E075F00A84C0F012053FD0E012053FBA
:1007900002058F791080027908C206C2088008D24B
:1007A000D5790A8004790AC2D5E543047002F5437D
:1007B000E4FAFDFEFF12051BFC7B08200113120565
:1007C0001BFD7B1030000A12051BFE12051BFF7B70
:1007D00020EC3382D592D55013C3E43000069FFF3E
:1007E000E49EFEE42001039DFDE49CFCE4CBF8C202
:1007F00001EC700CCFCECDCCE824F8F870F3801764
:10080000C3EF33FFEE33FEED33FDEC33FCEB33FB94
:10081000994002FB0FD8E9EB300105F8D0E0C4485D
:10082000B201C0E00AEC4D4E4F78207B0070C2EA66
:10083000B5430040BCC0E01208B6D0F0D0E02001C3
:1008400004C4C0E0C4B201C0F012053FD0F0D5F03E
:10085000EB02058F1204F5062C5307935805FD4C47
:1008600005F94207974F079F44079F490612430720
:10087000A55506D64607344506A047096B50060124
:100880002D06052E06282B06092306262009542AA4
:1008900005C14800000620E543B4FF037543061276
:1008A000051BFC12051BFD12051BFE12051BFF7824
:1008B00039020032790AA2D5200314300509B91093
:1008C000020404B9080104A2D52006025001042044
:1008D00002689202B542005034C0E07F2030031914
:1008E0007F30A20272067205500F12090DC202C2B9
:1008F00006C205C2087F30800F300503E9C0E01250
:100900000556300503D0E0F9D0E0B542CC300517EC
:100910007F30B9100C1205567F583004077F78805D
:1009200003B908031205563002057F2D0205567FD4
:10093000202008F87F2B2006F322920280CF7F0030
:10094000B4070050052439F8E6FF22286E756C6C58
:100950002900D20112051B3001F8C201784230D5BE
:100960000108F60205C12D5043495812051B240306
:10097000B405004001E490096693120547743A12E9
:0A0980000547D203754204020793F5
:10000300F920E72824F950037907E4F42402FB18C4
:10001300DBFDE624FB5014E9600DE4F618E604F674
:0F002300B40A08E4F6D9F57401F60A22C2D52210
:10003200ED33EC3392D5FA602AB4FF33EDC2E77B9D
:10004200FF60067A007957E4227A00796020D504AD
:100052007A00795B224E614E002B494E46002D49B3
:100062004E4600E47A08F608DAFC7B00740722E8C0
:10007200C0E0ECC0E0EDC0E0EEC0E0EFC0E0EA7549
:10008200F010A4CAABF075F04DA42BFBE435F0FCE4
:10009200EA2410FAEB34C5FBEC34D9FCEDC2E7FFDD
:1000A20075F056A4F42411C5F0F434C58FF0A42AD7
:1000B200E5F03BE43CF620E714120403D0E0FFD065
:1000C200E0FED0E0FDD0E0FC1203368014F404120E
:1000D2000403D0E0FFD0E0FED0E0FDD0E0FC12024D
:1000E2002DD0E0F8E6FAEDD2E7CD33EC332482FBF3
:1000F200E4C3CF33CFCE33CECD33CD33DBF37B0767
:1001020075F00A846004F6081B0AE5F0F6088FF021
:10011200740AA4FFACF08EF0740AA42CFEACF0506A
:10012200010C8DF0740AA42CFDE435F0F608DBDE38
:030132007407222D
:10013500020478E86480F8E933E83360110460F07C
:10014500ED33EC337009E8FCE9FDEAFEEBFF220430
:1001550060DED3EB9FEA9EE99DE8C2E78CF0C2F72B
:1001650095F0400CE8CCF8E9CDF9EACEFAEBCFFBF7
:1001750012044385D0F05804700320D5B3E8047009
:10018500075002B2D502048292D5EC0460F7E4CCA4
:10019500C0E0C398F8603B94186008400DD0E0FBC0
:1001A50002045AE4FBFAC9FC8028E830E406E4C9F5
:1001B500FBE4CAFCE830E305E4C9CACBFCE8540714
:1001C5006010F8C3E913F9EA13FAEB13FBEC13FC1F
:1001D500D8F130F52FC3E49CFCEF9BFFEE9AFEEDC2
:1001E50099FDD0E0FBEF4E4D4C701222DB0302046B
:1001F5007FEC2CFCEF33FFEE33FEED33FDED30E706
:10020500EB02045AEF2BFFEE3AFEED39FDD0E0FB91
:1002150050130BBB0003020482ED13FDEE13FEEF3A
:0802250013FFEC13FC02045A64
:10022D00EC4D6011E8497017ED33EC3304600DE4CB
:10023D00FCFFFEFD22E933E8330470F80204781266
:10024D00044358046009E4CC248150062850090267
:10025D00048228400302047FC0E0EB4A7044B98059
:10026D0006D0E0FB02046EEF4E701CBD8008EBFF64
:10027D00EAFEE9FD80EBE98DF0A4FEE5F002031640
:10028D00E9CDF9EAFEEBFFEF89F0A4FCE5F0CE89AC
:10029D00F0A42EFFE435F0CD89F0A42DFEE435F069
:1002AD008067EF4E7005BD80D780C3EF8BF0A4AC97
:1002BD00F0EE8BF0A42CFCE435F0F8EF8AF0A42CD2
:1002CD00E5F038FCE433CB8DF0A42CFCE5F03BF8E5
:1002DD00EE8AF0A42CFCE5F038F8E433CF89F0A4D5
:1002ED002CFCE5F038CF3400CE89F0A42FFFE5F0DB
:1002FD003EFEE433C98DF0A42EFEE5F039CD8AF033
:10030D00A42FFFE5F03EFEE43DFD33D0E0FB5007AA
:10031D000BBB000F020482EC2CFCEF33FFEE33FE1F
:06032D00ED33FD02045A4D
:10033300020482EC5D046005E8590470030204784A
:10034300120443580460F6EC4860F2EC7004FDFEBE
:10035300FF22C860DB2481C85009C398600250069D
:1003630002047F9850CAF582E9294B4A7005AB8293
:1003730002046E75F0007C1A7880C3EF9BEE9AED51
:1003830099400DC3EF9BFFEE9AFEED99FDE842F015
:10039300DC23ACF0D0E0FFD0E0FED0E0FDAB822068
:1003A300E7101BEB60BAEC2CFCEF33FFEE33FEEDF2
:1003B30033FD02045AE803F830E705C0F075F00096
:1003C300EF2FFFEE33FEED33FD40B830E7C280AAD6
:1003D3003F8000004120000042C80000447A000032
:1003E300461C400047C35000497424004B189680B4
:1003F3004CBEBC205A0E1BCA6753C21C749DC5AEAB
:10040300FB60065407601C2323120431EB5438604D
:100413000912041D12042C12022DECF8EDF9EEFA68
:10042300EFCB22EB12042C80F1543803241C9003ED
:10043300D3FE93FC0EEE93FD0EEE930ECE93FF22AE
:10044300E9D2E7C933E833F892D5EDD2E7CD33ECFF
:0704530033FC5002B2D52278
:10045A00EC30E7100FBF000C0EBE00080DBD000403
:10046A000BEB6014A2D5EB13FCED92E7FD2274FFAF
:10047A00FCFDFEFF22E480F8A2D574FF13FC7D8008
:03048A00E480EF1C
:0300000002098A68
:0C098A00787FE4F6D8FD7581450209D1A4
:10048D00BB010689828A83E0225002E722BBFE026D
:09049D00E32289828A83E49322A0
:1004A600BB010CE58229F582E5833AF583E022500B
:1004B60006E92582F8E622BBFE06E92582F8E22255
:0D04C600E58229F582E5833AF583E493226F
:1004D300BB010689828A83F0225002F722BBFE0108
:0204E300F32202
:1004E500FAE6FB0808E6F925F0F618E6CA3AF62218
:1004F500D083D082F8E4937012740193700DA3A396
:1005050093F8740193F5828883E4737402936860A9
:06051500EFA3A3A380DFA9
:100AC400EFB40A07740D120ACF740A309811A8996A
:100AD400B8130CC2983098FDA899C298B811F63092
:070AE40099FDC299F599226A
:10099600020B10E493A3F8E493A34003F68001F25C
:1009A60008DFF48029E493A3F85407240CC8C33362
:1009B600C4540F4420C8834004F456800146F6DF31
:1009C600E4800B0102040810204080900AEBE47ECC
:1009D600019360BCA3FF543F30E509541FFEE49326
:1009E600A360010ECF54C025E060A840B8E493A3ED
:1009F600FAE493A3F8E493A3C8C582C8CAC583CA18
:100A0600F0A3C8C582C8CAC583CADFE9DEE780BECF
:010AFD0000F8
:00000001FF
