:100F750010213F065B4F666D7D077F6F777C395E7D
:020F8500797180
:100F8800AD071FED600BE4FEEEC3946E50F20E80C9
:010F9800F761
:010F99002235
:100EBF007BA07A8679017800AF0FAE0EAD0DAC0C2A
:100ECF00120F31E47B0AFAF9F8120F31AC00AD01C1
:100EDF00AE02AF038F158E148D138C12E4F5167FAF
:010EEF000101
:100EF00075B0FFE4F5A0EF24FE60141460151460D3
:100F0000161460171460182405701EC2B08012C237
:100F1000B1800EC2B2800AC2B38006C2B48002C2DF
:100F2000B574212515F8E6F5A0E516600343A08009
:010F3000229E
:080003008F0B8E0A8D098C0899
:10000B00E4F50FF50EF50DF50C751006FFFE7D20D2
:10001B007C41AB0BAA0AA909A80812070950057560
:10002B0010018064E4FFFE7DC87C42AB0BAA0AA9D9
:10003B0009A8081207095005751002804BE4FFFE52
:10004B007D7A7C44AB0BAA0AA909A80812070950B0
:10005B000575100380327F007E407D1C7C46AB0B08
:10006B00AA0AA909A80812070950057510048018D7
:10007B007F007E507DC37C47AB0BAA0AA909A80859
:10008B001207095003751005AC10EC12078C8F1872
:10009B008E178D168C157F007E007D207C41120CF7
:1000AB0082AB0BAA0AA909A8081206031207C08F74
:1000BB000F8E0E8D0D8C0CE51024FE70030201AF1C
:1000CB0014700302027A14700302034514700302C6
:1000DB0004102404600302050C120EBFE47B107A9B
:1000EB0027F9F8AF0FAE0EAD0DAC0C120F31E47B50
:1000FB000AFAF9F8120F31AC00AD01AE02AF038F63
:10010B00158E148D138C12E4F5167F02120EF0E48B
:10011B007BE87A03F9F8AF0FAE0EAD0DAC0C120FF6
:10012B0031E47B0AFAF9F8120F31AC00AD01AE02E3
:10013B00AF038F158E148D138C12E4F5167F0312FB
:10014B000EF0E47B64FAF9F8AF0FAE0EAD0DAC0C0C
:10015B00120F31E47B0AFAF9F8120F31AC00AD0142
:10016B00AE02AF038F158E148D138C12E4F5167F30
:10017B0004120EF0E47B0AFAF9F8AF0FAE0EAD0DD8
:10018B00AC0C120F31E47B0AFAF9F8120F31AC0008
:10019B00AD01AE02AF038F158E148D138C12751635
:1001AB00010205D4120EBFE47B107A27F9F8AF0FCA
:1001BB00AE0EAD0DAC0C120F31E47B0AFAF9F8124E
:1001CB000F31AC00AD01AE02AF038F158E148D1342
:1001DB008C12E4F5167F02120EF0E47BE87A03F939
:1001EB00F8AF0FAE0EAD0DAC0C120F31E47B0AFA6B
:1001FB00F9F8120F31AC00AD01AE02AF038F158EC3
:10020B00148D138C12E4F5167F03120EF0E47B644D
:10021B00FAF9F8AF0FAE0EAD0DAC0C120F31E47B4B
:10022B000AFAF9F8120F31AC00AD01AE02AF038F31
:10023B00158E148D138C127516017F04120EF0E4BB
:10024B007B0AFAF9F8AF0FAE0EAD0DAC0C120F31F5
:10025B00E47B0AFAF9F8120F31AC00AD01AE02AF34
:10026B00038F158E148D138C12E4F5160205D41220
:10027B000EBFE47B107A27F9F8AF0FAE0EAD0DACC5
:10028B000C120F31E47B0AFAF9F8120F31AC00AD06
:10029B0001AE02AF038F158E148D138C12E4F5167D
:1002AB007F02120EF0E47BE87A03F9F8AF0FAE0E83
:1002BB00AD0DAC0C120F31E47B0AFAF9F8120F31C9
:1002CB00AC00AD01AE02AF038F158E148D138C12E3
:1002DB007516017F03120EF0E47B64FAF9F8AF0F89
:1002EB00AE0EAD0DAC0C120F31E47B0AFAF9F8121D
:1002FB000F31AC00AD01AE02AF038F158E148D1311
:10030B008C12E4F5167F04120EF0E47B0AFAF9F86E
:10031B00AF0FAE0EAD0DAC0C120F31E47B0AFAF938
:10032B00F8120F31AC00AD01AE02AF038F158E1476
:10033B008D138C12E4F5160205D4120EBFE47B105C
:10034B007A27F9F8AF0FAE0EAD0DAC0C120F31E4EE
:10035B007B0AFAF9F8120F31AC00AD01AE02AF0314
:10036B008F158E148D138C127516017F02120EF0E1
:10037B00E47BE87A03F9F8AF0FAE0EAD0DAC0C12BF
:10038B000F31E47B0AFAF9F8120F31AC00AD01AE74
:10039B0002AF038F158E148D138C12E4F5167F03A9
:1003AB00120EF0E47B64FAF9F8AF0FAE0EAD0DACA4
:1003BB000C120F31E47B0AFAF9F8120F31AC00ADD5
:1003CB0001AE02AF038F158E148D138C12E4F5164C
:1003DB007F04120EF0E47B0AFAF9F8AF0FAE0EAD04
:1003EB000DAC0C120F31E47B0AFAF9F8120F31AC99
:1003FB0000AD01AE02AF038F158E148D138C12E47A
:10040B00F5160205D47BA07A8679017800AF0FAE82
:10041B000EAD0DAC0C120F31E47B0AFAF9F8120F8A
:10042B0031AC00AD01AE02AF038F158E148D138C62
:10043B00127516017F01120EF0E47B107A27F9F882
:10044B00AF0FAE0EAD0DAC0C120F31E47B0AFAF907
:10045B00F8120F31AC00AD01AE02AF038F158E1445
:10046B008D138C12E4F5167F02120EF0E47BE87A02
:10047B0003F9F8AF0FAE0EAD0DAC0C120F31E47BE0
:10048B000AFAF9F8120F31AC00AD01AE02AF038FCF
:10049B00158E148D138C12E4F5167F03120EF0E4F7
:1004AB007B64FAF9F8AF0FAE0EAD0DAC0C120F3139
:1004BB00E47B0AFAF9F8120F31AC00AD01AE02AFD2
:1004CB00038F158E148D138C12E4F5167F04120E08
:1004DB00F0E47B0AFAF9F8AF0FAE0EAD0DAC0C12CF
:1004EB000F31E47B0AFAF9F8120F31AC00AD01AE13
:1004FB0002AF038F158E148D138C12E4F5160205C3
:10050B00D4120EBFE47B107A27F9F8AF0FAE0EAD05
:10051B000DAC0C120F31E47B0AFAF9F8120F31AC67
:10052B0000AD01AE02AF038F158E148D138C12E448
:10053B00F5167F02120EF0E47BE87A03F9F8AF0FA1
:10054B00AE0EAD0DAC0C120F31E47B0AFAF9F812BA
:10055B000F31AC00AD01AE02AF038F158E148D13AE
:10056B008C12E4F5167F03120EF0E47B64FAF9F8B3
:10057B00AF0FAE0EAD0DAC0C120F31E47B0AFAF9D6
:10058B00F8120F31AC00AD01AE02AF038F158E1414
:10059B008D138C12E4F5167F04120EF0E47B0AFA2D
:1005AB00F9F8AF0FAE0EAD0DAC0C120F31E47B0AA8
:1005BB00FAF9F8120F31AC00AD01AE02AF038F1593
:1005CB008E148D138C12E4F5167F05120EF0E47B5E
:1005DB000AFAF9F8AF0FAE0EAD0DAC0C120F31AC31
:1005EB0000AD01AE02AF038F158E148D138C12E488
:0705FB00F5167F06120EF059
:0106020022D5
:0D0F9A007F007E507D9A7C4412000380F39E
:10060300EC4D6011E8497017ED33EC3304600DE4F1
:10061300FCFFFEFD22E933E8330470F802082C12D4
:1006230007F758046009E4CC2481500628500902D6
:100633000836284003020833C0E0EB4A7044B9800F
:1006430006D0E0FB020822EF4E701CBD8008EBFFD2
:10065300EAFEE9FD80EBE98DF0A4FEE5F00206EC8D
:10066300E9CDF9EAFEEBFFEF89F0A4FCE5F0CE89D2
:10067300F0A42EFFE435F0CD89F0A42DFEE435F08F
:100683008067EF4E7005BD80D780C3EF8BF0A4ACBD
:10069300F0EE8BF0A42CFCE435F0F8EF8AF0A42CF8
:1006A300E5F038FCE433CB8DF0A42CFCE5F03BF80B
:1006B300EE8AF0A42CFCE5F038F8E433CF89F0A4FB
:1006C3002CFCE5F038CF3400CE89F0A42FFFE5F001
:1006D3003EFEE433C98DF0A42EFEE5F039CD8AF059
:1006E300A42FFFE5F03EFEE43DFD33D0E0FB5007D1
:1006F3000BBB000F020836EC2CFCEF33FFEE33FE8E
:06070300ED33FD02080EBB
:1007090074F8CC6480CCC86480C8F58204604FC397
:10071900EB9FF5F0EA9E42F0E99D42F0E89C45F036
:10072900603C501DE5825FFFE582D313CB5BCBF4C0
:100739002B5582FB50280ABA002409B900200880E9
:100749001DE5825BFBE582D313CF5FCFF4C3132F83
:100759005582FF50090EBE00050DBD00010CC3EB0B
:100769009FF5F0EA9E42F0E99D42F0E89C45F06071
:0907790007CC4820E701B3EC2293
:1007820075F020800E75F010800575F0087D007EF2
:10079200007F003392D530D503120A51EC3340105A
:1007A200EF33FFEE33FEED33FDEC33FCD5F0ED22FB
:0E07B200E5F0247EA2D513CC92E7CDCEFF2237
:1007C000EDD2E7CD33EC3392D524814006E4FFFE31
:1007D000FDFC22FCE4CFCECDCC24E0501174FF8090
:1007E000EDC3CC13CCCD13CDCE13CECF13CF04702D
:0707F000F030D5DE020A51D2
:100C82008F148E138D128C11E4FFFE7D807C3FAB9E
:100C920014AA13A912A8111207097009AF14AE13EE
:100CA200AD12AC1122AF14AE13AD12AC1112084149
:100CB200FBAF18AE17AD16AC15120841FFBF010805
:100CC200E4FFFE7D807C3F22EF64046022EB64043B
:100CD200601DBB0127E4FFFEFDFCAB18AA17A91695
:100CE200A81512070960084006E4FFFEFDFC227405
:100CF200FFF518F517F516F515020D90E4F519F53F
:100D02001AFFFEFDFCAB14AA13A912A811120709BF
:100D1200504BAF18AE17AD16AC151207C08E198F17
:100D22001AAC19AD1AEC120787C8ECC8C9EDC9CACA
:100D3200EECACBEFCBAF18AE17AD16AC1512085EEC
:100D4200E4FBFAF9F812070970A5AF14AE13AD125D
:100D5200AC111209538F148E138D128C11AF14AE75
:100D620013AD12AC11120B81AB18AA17A916A81554
:100D7200120603120DD18F188E178D168C15E51AD7
:100D820030E00B1209538F188E178D168C15AF1881
:070D9200AE17AD16AC1522EF
:1007F700E9D2E7C933E833F892D5EDD2E7CD33EC48
:0708070033FC5002B2D522C0
:10080E00EC30E7100FBF000C0EBE00080DBD00044B
:10081E000BEB6014A2D5EB13FCED92E7FD2274FFF7
:10082E00FCFDFEFF22E480F8A2D574FF13FC7D8050
:03083E00E480EF64
:10084100ED33EC33601004700FED547F70057402CA
:0A08510092E0227404220422E42243
:10085B0002082CE86480F8E933E83360110460F097
:10086B00ED33EC337009E8FCE9FDEAFEEBFF220403
:10087B0060DED3EB9FEA9EE99DE8C2E78CF0C2F7FE
:10088B0095F0400CE8CCF8E9CDF9EACEFAEBCFFBCA
:10089B001207F785D0F05804700320D5B3E8047025
:1008AB00075002B2D502083692D5EC0460F7E4CCBF
:1008BB00C0E0C398F8603B94186008400DD0E0FB93
:1008CB0002080EE4FBFAC9FC8028E830E406E4C910
:1008DB00FBE4CAFCE830E305E4C9CACBFCE85407E7
:1008EB006010F8C3E913F9EA13FAEB13FBEC13FCF2
:1008FB00D8F130F52FC3E49CFCEF9BFFEE9AFEED95
:10090B0099FDD0E0FBEF4E4D4C701222DB03020839
:10091B0033EC2CFCEF33FFEE33FEED33FDED30E724
:10092B00EB02080EEF2BFFEE3AFEED39FDD0E0FBAC
:10093B0050130BBB0003020836ED13FDEE13FEEF55
:08094B0013FFEC13FC02080E7F
:10095300ED33EC33600A047003BD8004ECB2E7FCB2
:010963002271
:100D990033DA929E35B16011377FE5FE39218489B6
:100DA9003AAEC3FF3C1D955B3D6358473E75FDF068
:100DB9003F3172183F800000C2D502083602082C64
:100DC900BD80FA50F3020833ED33EC330460F17B54
:100DD9003B7AAA79B8783F120603ED33EC3392D502
:100DE900247B5011A2D570DB500BED4480240450B4
:100DF90004A2D580CEEFFBEEFAEDF9ECF81207C0AC
:100E0900EFF582F404FC12078C120862C082900D7F
:100E1900997409120A13ED33CC33D0F092D525F029
:0A0E2900A2D57001C313CC13FD2203
:100B4D003E9248DA3ECCCCCD3F2AAAAB4000000005
:100B5D003F8000003F9837F03FB504F33FD744FC8A
:100B6D003E3172173EB172173F0515913EDE5BD9CE
:100B7D00D2008002C200EDD2E7F8CD33EC33047021
:100B8D000BBD800592D502083602082C40FBD3140C
:100B9D0060F2F5F07C3FEE7A00C39496C8948B40DA
:100BAD00230AC89469C8941A401A0AC89468C8944C
:100BBD001F40110AC8945AC89425400805F07A00C0
:100BCD00CDC2E7CDC0F08C1B8D1C8E1D8F1EEA2370
:100BDD0023C0E0245DF582E4340BF583120A6F1215
:100BED000862ECC0E0EDC0E0EEC0E0EFC0E0120A3C
:100BFD005FA81BA91CAA1DAB1E12085ED0E0FBD07E
:100C0D00E0FAD0E0F9D0E0B2E7F81209678C1B8D5D
:100C1D001C8E1D8F1E900B4D7403120A04A81BA968
:100C2D001CAA1DAB1E120603D0E0600F2469F582CD
:100C3D00E4340BF583120A6F1208628C1B8D1C8E27
:100C4D001D8F1ED0E0C3947FFDE49400FC12078736
:100C5D007B187A727931783F120603A81BA91CAA5A
:100C6D001DAB1E12086230000B7BD97A5B79DE78E2
:050C7D003E12060322F7
:10096400020836EC5D046005E85904700302082CA3
:100974001207F7580460F6EC4860F2EC7004FDFED0
:10098400FF22C860DB2481C85009C3986002500666
:100994000208339850CAF582E9294B4A7005AB82A4
:1009A40002082275F0007C1A7880C3EF9BEE9AED62
:1009B40099400DC3EF9BFFEE9AFEED99FDE842F0DE
:1009C400DC23ACF0D0E0FFD0E0FED0E0FDAB822031
:1009D400E7101BEB60BAEC2CFCEF33FFEE33FEEDBB
:1009E40033FD02080EE803F830E705C0F075F000A7
:1009F400EF2FFFEE33FEED33FD40B830E7C280AA9F
:100A0400C0E0EFFBEEFAEDF9ECF8120603D0E0F5E6
:100A1400F0EFFBEEFAEDF9ECF8120A5FA3A3A3A33F
:100A2400E8C0E0E9C0E0EAC0E0EBC0E0C0F01206D4
:100A340003120A6FA3A3A3A3120862D0F0D0E0FBB1
:0D0A4400D0E0FAD0E0F9D0E0F8D5F0D422EF
:03000000020E33BA
:0C0E3300787FE4F6D8FD758130020E7A5D
:100F3100C2D5E830E70FB2D5E4C39BFBE49AFAE4EB
:100F410099F9E498F8EC30E717B2D5120F67120A55
:100F5100BBE4C39BFBE49AFAE499F9E498F88003B3
:100F6100120ABB30D50DE4C39FFFE49EFEE49DFD54
:040F7100E49CFC22DE
:0E0A5100C3E49FFFE49EFEE49DFDE49CFC22B6
:100A5F00E493FC740193FD740293FE740393FF22DD
:100A6F00E493F8740193F9740293FA740393FB22DD
:100E3F00020F9AE493A3F8E493A34003F68001F220
:100E4F0008DFF48029E493A3F85407240CC8C333B4
:100E5F00C4540F4420C8834004F456800146F6DF83
:100E6F00E4800B0102040810204080900F75E47E8F
:100E7F00019360BCA3FF543F30E509541FFEE49378
:100E8F00A360010ECF54C025E060A840B8E493A33F
:100E9F00FAE493A3F8E493A3C8C582C8CAC583CA6A
:100EAF00F0A3C8C582C8CAC583CADFE9DEE780BE22
:010F87000069
:100A7F0075F008758200EF2FFFEE33FECD33CDCC2E
:100A8F0033CCC58233C5829BED9AEC99E5829840B1
:100A9F000CF582EE9BFEED9AFDEC99FC0FD5F0D68E
:100AAF00E4CEFBE4CDFAE4CCF9A88222B800C1B9B8
:100ABF000059BA002DEC8BF084CFCECDFCE5F0CBF6
:100ACF00F97818EF2FFFEE33FEED33FDEC33FCEB2F
:100ADF0033FB10D703994004EB99FB0FD8E5E4F9EA
:100AEF00FA227818EF2FFFEE33FEED33FDEC33FCD7
:100AFF00C933C910D7059BE99A4007EC9BFCE99ACB
:100B0F00F90FD8E0E4C9FAE4CCFB2275F010EF2F0F
:100B1F00FFEE33FEED33FDCC33CCC833C810D7070F
:100B2F009BEC9AE899400AED9BFDEC9AFCE899F84A
:0E0B3F000FD5F0DAE4CDFBE4CCFAE4C8F922DD
:00000001FF
