:0A0C36002566000000000000000029
:100C040010083F065B4F666D7D077F6F777C395E0A
:020C14007971F4
:100C1700AD071FED600BE4FEEEC3946E50F20E803D
:010C2700F7D5
:010C280022A9
:100B9300EF24FE601514601714601914601B1460B1
:100BA3001D2405702375B0FE801775B0FD80127586
:100BB300B0FB800D75B0F7800875B0EF800375B09A
:100BC300DF74082DF8E6F5A0BB010343A080EFC353
:0A0BD300940650057F08120C17224B
:080B0C008F258E248D238C221D
:100B1400E4F529F528F527F526782A7C00FD7BFFE6
:100B24007A0C7939FE7F0712055DE4F5317535FFDE
:100B340075360C75373685253B85243A85233985EA
:100B44002238FB7A00792A12066DE4F9FA742A2A0B
:100B5400F8E6B42E1679018A31AF0274292AF8E630
:100B640024D0FDE434FFFC7B01801CE96009EA0425
:100B7400C399FF742A8004AF0274292AF8E624D0AA
:0E0B8400FDE434FFFCE4FB120B930ABA08BF39
:010B92002240
:0D0C29007F9A7EE17DFC7C44120B0C80F371
:10061100E5492435F8E60549227832300702783574
:10062100E475F0011205DB0205832000EB7F2ED279
:10063100008018EF540F2490D43440D4FF30040BC1
:10064100EF24BFB41A0050032461FFE54A6002158C
:100651004A054DE54D7002054C30070D7832E475C1
:10066100F0011205DBEF0205C9020BDD7403D207AD
:100671008003E4C207F5498B328A338934E4F54AB1
:10068100F54CF54DE54A60077F2012064C80F57563
:100691004BFFC201C200C202C203C205C206C208A8
:1006A10012061AFF700D3007057F0012065DAF4D6F
:1006B100AE4C22B4255FC2D5C20412061AFF24D063
:1006C100B40A00501A75F00A784A30D50508B6FF09
:1006D1000106C6A426F620D5047002D20380D924CF
:1006E100CFB41A00EF5004C2E5D20402094AD20184
:1006F10080C6D20080C0D20280BCD2D580BAD205D9
:1007010080B47F2012064C2002077401B54A0040D4
:10071100F1120611FF12064C020685D208D206809C
:1007210095120611FB120611FA120611F94A4B70C5
:100731000679417A0A7BFF20022EE54A602A7E0073
:100741008E8275830012059C60060EEE654B70F07B
:10075100C2D5EBC0E0EAC0E0E9C0E0EE1209AAD0E0
:10076100E0F9D0E0FAD0E0FB120583FF60AAEBC00C
:10077100E0EAC0E0E9C0E012064CD0E02401F9D083
:10078100E03400FAD0E0FBE54B0460DCD54BD980C6
:1007910087D20280A212098D60F7E54B7001041225
:1007A1000003A94B600DE54B600914F54B120A34A7
:1007B100EF60F3EA30E702F404C3995077EAF425D5
:1007C1004B0430E701E404F54B800D12098D60C143
:1007D100EA054B254B120003EA7848F630E701E4BD
:1007E100254B04D54B04200501141209AAE4C0E0ED
:1007F100120A347848E6601320E70714F61206342B
:10080100802204F6D0E014C0E07F00120634E54BEC
:10081100600712062B154B800B30050312062BD0F7
:10082100E0020685D0E00480C512098D60A0E54B89
:10083100041200037848EAF6E54B20050260010442
:0508410024041209AAC5
:1008460074FF04C0E0120A34120634E54B20050298
:10085600600312062BD0E0B54BE87F4512063E78C2
:1008660048E67F2B30E7047F2DF404C0E012064CE7
:10087600D0E075F00A84C0F0120635D0E0120635D5
:10088600020685791080027908C206C2088008D25D
:10089600D5790A8004790AC2D5E54B047002F54B76
:1008A600E4FAFDFEFF120611FC7B08200113120676
:1008B60011FD7B1030000A120611FE120611FF7B95
:1008C60020EC3382D592D55013C3E43000069FFF47
:1008D600E49EFEE42001039DFDE49CFCE4CBF8C20B
:1008E60001EC700CCFCECDCCE824F8F870F380176D
:1008F600C3EF33FFEE33FEED33FDEC33FCEB33FB9E
:10090600994002FB0FD8E9EB300105F8D0E0C44866
:10091600B201C0E00AEC4D4E4F78207B0070C2EA6F
:10092600B54B0040BCC0E01209ACD0F0D0E02001CD
:1009360004C4C0E0C4B201C0F0120635D0F0D5F050
:10094600EB0206851205EB07225308895806F34C7D
:1009560006EF42088D4F0895440895490708430855
:100966009B5507CC46082A450796470A615006F765
:100976002D06FB2E071E2B06FF23071C200A4A2ADC
:1009860006B74800000716E54BB4FF03754B061281
:100996000611FC120611FD120611FE120611FF7851
:1009A60041020032790AA2D5200314300509B91094
:1009B600020404B9080104A2D5200602500104204D
:1009C60002689202B54A005034C0E07F2030031915
:1009D6007F30A20272067205500F120A03C202C2CB
:1009E60006C205C2087F30800F300503E9C0E01259
:1009F600064C300503D0E0F9D0E0B54ACC300517F7
:100A06007F30B9100C12064C7F583004077F78806F
:100A160003B9080312064C3002057F2D02064C7FEF
:100A2600202008F87F2B2006F322920280CF7F0039
:100A3600B4070050052441F8E6FF22286E756C6C59
:100A46002900D2011206113001F8C201784A30D5C8
:100A56000108F60206B72D50434958120611240321
:100A6600B405004001E4900A5C9312063D743A1204
:0A0A7600063DD203754A0402088908
:10000300F920E72824F950037907E4F42402FB18C4
:10001300DBFDE624FB5014E9600DE4F618E604F674
:0F002300B40A08E4F6D9F57401F60A22C2D52210
:10003200ED33EC3392D5FA602AB4FF33EDC2E77B9D
:10004200FF60067A007957E4227A00796020D504AD
:100052007A00795B224E614E002B494E46002D49B3
:100062004E4600E47A08F608DAFC7B00740722E8C0
:10007200C0E0ECC0E0EDC0E0EEC0E0EFC0E0EA7549
:10008200F010A4CAABF075F04DA42BFBE435F0FCE4
:10009200EA2410FAEB34C5FBEC34D9FCEDC2E7FFDD
:1000A20075F056A4F42411C5F0F434C58FF0A42AD7
:1000B200E5F03BE43CF620E714120403D0E0FFD065
:1000C200E0FED0E0FDD0E0FC1203368014F404120E
:1000D2000403D0E0FFD0E0FED0E0FDD0E0FC12024D
:1000E2002DD0E0F8E6FAEDD2E7CD33EC332482FBF3
:1000F200E4C3CF33CFCE33CECD33CD33DBF37B0767
:1001020075F00A846004F6081B0AE5F0F6088FF021
:10011200740AA4FFACF08EF0740AA42CFEACF0506A
:10012200010C8DF0740AA42CFDE435F0F608DBDE38
:030132007407222D
:10013500020478E86480F8E933E83360110460F07C
:10014500ED33EC337009E8FCE9FDEAFEEBFF220430
:1001550060DED3EB9FEA9EE99DE8C2E78CF0C2F72B
:1001650095F0400CE8CCF8E9CDF9EACEFAEBCFFBF7
:1001750012044385D0F05804700320D5B3E8047009
:10018500075002B2D502048292D5EC0460F7E4CCA4
:10019500C0E0C398F8603B94186008400DD0E0FBC0
:1001A50002045AE4FBFAC9FC8028E830E406E4C9F5
:1001B500FBE4CAFCE830E305E4C9CACBFCE8540714
:1001C5006010F8C3E913F9EA13FAEB13FBEC13FC1F
:1001D500D8F130F52FC3E49CFCEF9BFFEE9AFEEDC2
:1001E50099FDD0E0FBEF4E4D4C701222DB0302046B
:1001F5007FEC2CFCEF33FFEE33FEED33FDED30E706
:10020500EB02045AEF2BFFEE3AFEED39FDD0E0FB91
:1002150050130BBB0003020482ED13FDEE13FEEF3A
:0802250013FFEC13FC02045A64
:10022D00EC4D6011E8497017ED33EC3304600DE4CB
:10023D00FCFFFEFD22E933E8330470F80204781266
:10024D00044358046009E4CC248150062850090267
:10025D00048228400302047FC0E0EB4A7044B98059
:10026D0006D0E0FB02046EEF4E701CBD8008EBFF64
:10027D00EAFEE9FD80EBE98DF0A4FEE5F002031640
:10028D00E9CDF9EAFEEBFFEF89F0A4FCE5F0CE89AC
:10029D00F0A42EFFE435F0CD89F0A42DFEE435F069
:1002AD008067EF4E7005BD80D780C3EF8BF0A4AC97
:1002BD00F0EE8BF0A42CFCE435F0F8EF8AF0A42CD2
:1002CD00E5F038FCE433CB8DF0A42CFCE5F03BF8E5
:1002DD00EE8AF0A42CFCE5F038F8E433CF89F0A4D5
:1002ED002CFCE5F038CF3400CE89F0A42FFFE5F0DB
:1002FD003EFEE433C98DF0A42EFEE5F039CD8AF033
:10030D00A42FFFE5F03EFEE43DFD33D0E0FB5007AA
:10031D000BBB000F020482EC2CFCEF33FFEE33FE1F
:06032D00ED33FD02045A4D
:10033300020482EC5D046005E8590470030204784A
:10034300120443580460F6EC4860F2EC7004FDFEBE
:10035300FF22C860DB2481C85009C398600250069D
:1003630002047F9850CAF582E9294B4A7005AB8293
:1003730002046E75F0007C1A7880C3EF9BEE9AED51
:1003830099400DC3EF9BFFEE9AFEED99FDE842F015
:10039300DC23ACF0D0E0FFD0E0FED0E0FDAB822068
:1003A300E7101BEB60BAEC2CFCEF33FFEE33FEEDF2
:1003B30033FD02045AE803F830E705C0F075F00096
:1003C300EF2FFFEE33FEED33FD40B830E7C280AAD6
:1003D3003F8000004120000042C80000447A000032
:1003E300461C400047C35000497424004B189680B4
:1003F3004CBEBC205A0E1BCA6753C21C749DC5AEAB
:10040300FB60065407601C2323120431EB5438604D
:100413000912041D12042C12022DECF8EDF9EEFA68
:10042300EFCB22EB12042C80F1543803241C9003ED
:10043300D3FE93FC0EEE93FD0EEE930ECE93FF22AE
:10044300E9D2E7C933E833F892D5EDD2E7CD33ECFF
:0704530033FC5002B2D52278
:10045A00EC30E7100FBF000C0EBE00080DBD000403
:10046A000BEB6014A2D5EB13FCED92E7FD2274FFAF
:10047A00FCFDFEFF22E480F8A2D574FF13FC7D8008
:03048A00E480EF1C
:03000000020A8071
:0C0A8000787FE4F6D8FD75814D020AC7AE
:10048D00E709F608DFFA8046E709F208DFFA803E51
:10049D0088828C83E709F0A3DFFA8032E309F6083E
:1004AD00DFFA8078E309F208DFFA807088828C83A6
:1004BD00E309F0A3DFFA806489828A83E0A3F6085A
:1004CD00DFFA805889828A83E0A3F208DFFA804C34
:1004DD0080D280FA80C680D4806980F2803380100B
:1004ED0080A680EA809A80A880DA80E280CA803374
:1004FD0089828A83ECFAE493A3C8C582C8CCC583EC
:10050D00CCF0A3C8C582C8CCC583CCDFE9DEE780BB
:10051D000D89828A83E493A3F608DFF9ECFAA9F03A
:10052D00EDFB2289828A83ECFAE0A3C8C582C8CC90
:10053D00C583CCF0A3C8C582C8CCC583CCDFEADEA9
:10054D00E880DB89828A83E493A3F208DFF980CC0B
:10055D0088F0EF60010E4E60C388F0ED2402B40404
:10056D000050B9F582EB2402B4040050AF232345AB
:06057D0082239004DD73EF
:10058300BB010689828A83E0225002E722BBFE0276
:09059300E32289828A83E49322A9
:10059C00BB010CE58229F582E5833AF583E0225014
:1005AC0006E92582F8E622BBFE06E92582F8E2225E
:0D05BC00E58229F582E5833AF583E4932278
:1005C900BB010689828A83F0225002F722BBFE0111
:0205D900F3220B
:1005DB00FAE6FB0808E6F925F0F618E6CA3AF62221
:1005EB00D083D082F8E4937012740193700DA3A39F
:1005FB0093F8740193F5828883E4737402936860B3
:06060B00EFA3A3A380DFB2
:100BDD00EFB40A07740D120BE8740A309811A89936
:100BED00B8130CC2983098FDA899C298B811F63078
:070BFD0099FDC299F5992250
:100A8C00020C29E493A3F8E493A34003F68001F24B
:100A9C0008DFF48029E493A3F85407240CC8C3336B
:100AAC00C4540F4420C8834004F456800146F6DF3A
:100ABC00E4800B0102040810204080900C04E47EBA
:100ACC00019360BCA3FF543F30E509541FFEE4932F
:100ADC00A360010ECF54C025E060A840B8E493A3F6
:100AEC00FAE493A3F8E493A3C8C582C8CAC583CA21
:100AFC00F0A3C8C582C8CAC583CADFE9DEE780BED9
:010C160000DD
:00000001FF
