:1000E90010083F065B4F666D7D077F6F777C395E31
:0600F900797102180000FD
:10010000AD071FED600BE4FEEEC3946E50F20E805F
:01011000F7F7
:0101110022CB
:10011200758906758AFF758CFFD28CD2A9D2AF225F
:10009A00AC07E4F5A0C2B0D2B1EC75F00A8475F0F1
:1000AA000A84740825F0F8E6F5A07F1E120100E420
:1000BA00F5A0D2B0C2B1EC75F00A84740825F0F844
:0800CA00E6F5A07F1E02010013
:0A012200120112AF1912009A80F9C1
:03000B000200D21E
:1000D200C0E00519E519700205186414451870048A
:0700E200F518F519D0E0321A
:0300000002000EED
:0C000E00787FE4F6D8FD758119020055DA
:10001A00020122E493A3F8E493A34003F68001F2D9
:10002A0008DFF48029E493A3F85407240CC8C333E7
:10003A00C4540F4420C8834004F456800146F6DFB6
:10004A00E4800B01020408102040809000E9E47E5D
:10005A00019360BCA3FF543F30E509541FFEE493AB
:10006A00A360010ECF54C025E060A840B8E493A372
:10007A00FAE493A3F8E493A3C8C582C8CAC583CA9D
:10008A00F0A3C8C582C8CAC583CADFE9DEE780BE55
:0100FF000000
:00000001FF
