:1000EF0010083F065B4F666D7D077F6F777C395E2B
:0600FF00797102180000F7
:10010600AD071FED600BE4FEEEC3946E50F20E8059
:01011600F7F1
:0101170022C5
:10011800758906758AEC758CECD28CD2A9D2AF227F
:10009A00AC07E4F5A0C2B0D2B1EC75F00A8475F0F1
:1000AA000A84740825F0F8E6F5A07F1E120106E41A
:1000BA00F5A0D2B0C2B1EC75F00A84740825F0F844
:0800CA00E6F5A07F1E0201060D
:1000D2001201187F00AD8AEF2DFFE433CF2414F50F
:0D00E20019EF34FFF518AF1912009A80E6EF
:03000B00020003ED
:0700030075180075190032A9
:0300000002000EED
:0C000E00787FE4F6D8FD758119020055DA
:10001A000200D2E493A3F8E493A34003F68001F22A
:10002A0008DFF48029E493A3F85407240CC8C333E7
:10003A00C4540F4420C8834004F456800146F6DFB6
:10004A00E4800B01020408102040809000EFE47E57
:10005A00019360BCA3FF543F30E509541FFEE493AB
:10006A00A360010ECF54C025E060A840B8E493A372
:10007A00FAE493A3F8E493A3C8C582C8CAC583CA9D
:10008A00F0A3C8C582C8CAC583CADFE9DEE780BE55
:0101050000F9
:00000001FF
