:0400E9000208000009
:1000D7005389F0758AF0758CD8C28DD28CD2A9D28B
:0200E700AF2246
:10009A00EF7806C333CE33CED8F9FFC2B0C2B1E48B
:1000AA00FDC2B0EF25E0FFEE33FE92B2D2B00DBD35
:0600BA000CEFD2B1C2B050
:0100C000221D
:1000C1001200D774052509F509E43508F508AF09CB
:0600D100FE12009A80ED12
:03000B00020003ED
:0700030075080075090032C9
:0300000002000EED
:0C000E00787FE4F6D8FD758109020055EA
:10001A000200C1E493A3F8E493A34003F68001F23B
:10002A0008DFF48029E493A3F85407240CC8C333E7
:10003A00C4540F4420C8834004F456800146F6DFB6
:10004A00E4800B01020408102040809000E9E47E5D
:10005A00019360BCA3FF543F30E509541FFEE493AB
:10006A00A360010ECF54C025E060A840B8E493A372
:10007A00FAE493A3F8E493A3C8C582C8CAC583CA9D
:10008A00F0A3C8C582C8CAC583CADFE9DEE780BE55
:0100ED000012
:00000001FF
