:1002E60010083F065B4F666D7D077F6F777C395E32
:0202F60079711C
:1002F900AD071FED600BE4FEEEC3946E50F20E8065
:01030900F7FC
:01030A0022D0
:0402A900AC1EAD1FBB
:1002AD0075B0FFE4F5A0EF24FE6014146015146022
:1002BD00161460171460182405701DC2B08012C288
:1002CD00B1800EC2B2800AC2B38006C2B48002C22F
:0902DD00B574082DF8E6F5A02225
:080003008F1B8E1A8D198C1859
:10000B00E4F51FF51EF51DF51C7BA07A867901F82A
:10001B001202658F1F8E1E8D1D8C1C7F061202A96E
:10002B00E47B107A27F9F8AF1BAE1AAD19AC181296
:10003B000265E47B0AFAF9F8120265AE02AF03AD72
:10004B0007AC067F051202ADE47B107A27F9F8AFF7
:10005B001BAE1AAD19AC18120265E47B64FAF9F801
:10006B00120265AE02AF03AD07AC067F041202AD00
:10007B00E47B64FAF9F8AF1BAE1AAD19AC18120297
:10008B0065E47BE87A03F9F8120265AC00AD01AECA
:10009B0002AF038F1F8E1E8D1D8C1C7F031202A9B6
:1000AB00E47B0AFAF9F8AF1BAE1AAD19AC181202C1
:1000BB0065E47B107A27F9F8120265AC00AD01AE4E
:1000CB0002AF038F1F8E1E8D1D8C1CAC1EAD1F7FB0
:1000DB00021202AD7BA07A8679017800AF1BAE1AB3
:1000EB00AD19AC18120265AC00AD01AE02AF038FB7
:1000FB001F8E1E8D1D8C1CAC1EAD1F7F010202AD11
:0D030B007F407EE27D017C0012000380F344
:030000000201D921
:0C01D900787FE4F6D8FD75811F0202203B
:10026500C2D5E830E70FB2D5E4C39BFBE49AFAE4C4
:1002750099F9E498F8EC30E717B2D512029B120110
:1002850047E4C39BFBE49AFAE499F9E498F8800300
:1002950012014730D50DE4C39FFFE49EFEE49DFDAA
:0402A500E49CFC22B7
:1001E50002030BE493A3F8E493A34003F68001F222
:1001F50008DFF48029E493A3F85407240CC8C3331B
:10020500C4540F4420C8834004F456800146F6DFE9
:10021500E4800B01020408102040809002E6E47E91
:10022500019360BCA3FF543F30E509541FFEE493DE
:10023500A360010ECF54C025E060A840B8E493A3A5
:10024500FAE493A3F8E493A3C8C582C8CAC583CAD0
:10025500F0A3C8C582C8CAC583CADFE9DEE780BE88
:0102F8000005
:10010B0075F008758200EF2FFFEE33FECD33CDCCAB
:10011B0033CCC58233C5829BED9AEC99E58298402E
:10012B000CF582EE9BFEED9AFDEC99FC0FD5F0D60B
:10013B00E4CEFBE4CDFAE4CCF9A88222B800C1B935
:10014B000059BA002DEC8BF084CFCECDFCE5F0CB73
:10015B00F97818EF2FFFEE33FEED33FDEC33FCEBAC
:10016B0033FB10D703994004EB99FB0FD8E5E4F967
:10017B00FA227818EF2FFFEE33FEED33FDEC33FC54
:10018B00C933C910D7059BE99A4007EC9BFCE99A48
:10019B00F90FD8E0E4C9FAE4CCFB2275F010EF2F8D
:1001AB00FFEE33FEED33FDCC33CCC833C810D7078D
:1001BB009BEC9AE899400AED9BFDEC9AFCE899F8C8
:0E01CB000FD5F0DAE4CDFBE4CCFAE4C8F9225B
:00000001FF
