:10030B0010083F065B4F666D7D077F6F777C395E0C
:02031B007971F6
:0402CE00AC1EAD1F96
:1002D20075B0FFE4F5A0EF24FE60141460151460FD
:1002E200161460171460182405701DC2B08012C263
:1002F200B1800EC2B2800AC2B38006C2B48002C20A
:09030200B574082DF8E6F5A022FF
:080003008F1B8E1A8D198C1859
:10000B00E4F51FF51EF51DF51C7BA07A867901F82A
:10001B0012028AE47B0AFAF9F812028AAC00AD01EB
:10002B00AE02AF038F1F8E1E8D1D8C1C7F01120223
:10003B00CEE47B107A27F9F8AF1BAE1AAD19AC18CA
:10004B0012028AE47B0AFAF9F812028AAC00AD01BB
:10005B00AE02AF038F1F8E1E8D1D8C1C7F021202F2
:10006B00CEE47BE87A03F9F8AF1BAE1AAD19AC18E6
:10007B0012028AE47B0AFAF9F812028AAC00AD018B
:10008B00AE02AF038F1F8E1E8D1D8C1CAC1EAD1FC1
:10009B007F031202D2E47B64FAF9F8AF1BAE1AAD00
:1000AB0019AC1812028AE47B0AFAF9F812028AAC2C
:1000BB0000AD01AE02AF038F1F8E1E8D1D8C1CACCD
:1000CB001EAD1F7F041202D2E47B0AFAF9F8AF1BB4
:1000DB00AE1AAD19AC1812028AE47B0AFAF9F812BF
:1000EB00028AAC00AD01AE02AF038F1F8E1E8D1DB9
:1000FB008C1CAC1EAD1F7F051202D2E47B0AFAF9F1
:10010B00F8AF1BAE1AAD19AC1812028AAC00AD01D8
:10011B00AE02AF038F1F8E1E8D1D8C1CAC1EAD1F30
:05012B007F060202D274
:0D031E007F407EE27D017C0012000380F331
:030000000201FEFC
:0C01FE00787FE4F6D8FD75811F020245F1
:10028A00C2D5E830E70FB2D5E4C39BFBE49AFAE49F
:10029A0099F9E498F8EC30E717B2D51202C01201C6
:1002AA006CE4C39BFBE49AFAE499F9E498F88003B6
:1002BA0012016C30D50DE4C39FFFE49EFEE49DFD60
:0402CA00E49CFC2292
:10020A0002031EE493A3F8E493A34003F68001F2E9
:10021A0008DFF48029E493A3F85407240CC8C333F5
:10022A00C4540F4420C8834004F456800146F6DFC4
:10023A00E4800B010204081020408090030BE47E46
:10024A00019360BCA3FF543F30E509541FFEE493B9
:10025A00A360010ECF54C025E060A840B8E493A380
:10026A00FAE493A3F8E493A3C8C582C8CAC583CAAB
:10027A00F0A3C8C582C8CAC583CADFE9DEE780BE63
:01031D0000DF
:1001300075F008758200EF2FFFEE33FECD33CDCC86
:1001400033CCC58233C5829BED9AEC99E582984009
:100150000CF582EE9BFEED9AFDEC99FC0FD5F0D6E6
:10016000E4CEFBE4CDFAE4CCF9A88222B800C1B910
:100170000059BA002DEC8BF084CFCECDFCE5F0CB4E
:10018000F97818EF2FFFEE33FEED33FDEC33FCEB87
:1001900033FB10D703994004EB99FB0FD8E5E4F942
:1001A000FA227818EF2FFFEE33FEED33FDEC33FC2F
:1001B000C933C910D7059BE99A4007EC9BFCE99A23
:1001C000F90FD8E0E4C9FAE4CCFB2275F010EF2F68
:1001D000FFEE33FEED33FDCC33CCC833C810D70768
:1001E0009BEC9AE899400AED9BFDEC9AFCE899F8A3
:0E01F0000FD5F0DAE4CDFBE4CCFAE4C8F92236
:00000001FF
