:0400D0000208000022
:1000BB005389F0438902758A9C758C9CC28DD28CB6
:0500CB00D2A9D2AF2212
:050003001200BB80FEAD
:03000B0002009A56
:10009A00C0E0C0D00509E50970020508B4100DE5F5
:1000AA0008B42708750800750900B2A0D0D0D0E0BE
:0100BA003213
:0300000002000EED
:0C000E00787FE4F6D8FD758109020055EA
:10001A00020003E493A3F8E493A34003F68001F2F9
:10002A0008DFF48029E493A3F85407240CC8C333E7
:10003A00C4540F4420C8834004F456800146F6DFB6
:10004A00E4800B01020408102040809000D0E47E76
:10005A00019360BCA3FF543F30E509541FFEE493AB
:10006A00A360010ECF54C025E060A840B8E493A372
:10007A00FAE493A3F8E493A3C8C582C8CAC583CA9D
:10008A00F0A3C8C582C8CAC583CADFE9DEE780BE55
:0100D400002B
:00000001FF
