:10019800100A3F065B4F666D7D077F6F777C395E7F
:0501A80079710109124C
:10018200EF1FAA0670011E4A600BE4FDEDC3946ED8
:0501920050EE0D80F7A6
:010197002245
:10008F0075900FE590640F605F7F0A7E001201820A
:10009F00E590540F24F9601A24FC601124FE6008C7
:1000AF00147012E4F51A800D751A018008751A0282
:1000BF008003751A037590F0E59054F02490601B3F
:1000CF0024C0601224E0600924F07012E4F51B8054
:1000DF000D751B018008751B028003751B03E51A44
:0800EF0025E025E0251BF509C1
:0100F70022E6
:1000F80012008FE50912015C012200012701012C81
:1001080002013104013605013B0601400801450999
:10011800014A0A014F0D00000152750801802B7534
:10012800080280267508038021750804801C75085C
:100138000580177508068012750807800D75080870
:1001480080087508098003E4F508740A2508F8E6AC
:04015800F5A0809CF2
:03000000020003F8
:0C000300787FE4F6D8FD75811B02004AEE
:10015C00D083D082F8E4937012740193700DA3A332
:10016C0093F8740193F5828883E473740293686046
:06017C00EFA3A3A380DF46
:10000F000200F8E493A3F8E493A34003F68001F20F
:10001F0008DFF48029E493A3F85407240CC8C333F2
:10002F00C4540F4420C8834004F456800146F6DFC1
:10003F00E4800B0102040810204080900198E47EB8
:10004F00019360BCA3FF543F30E509541FFEE493B6
:10005F00A360010ECF54C025E060A840B8E493A37D
:10006F00FAE493A3F8E493A3C8C582C8CAC583CAA8
:10007F00F0A3C8C582C8CAC583CADFE9DEE780BE60
:0101AD000051
:00000001FF
