:10018D0010093F065B4F666D7D077F6F777C395E8B
:05019D00797101081258
:10017700EF1FAA0670011E4A600BE4FDEDC3946EE3
:0501870050EE0D80F7B1
:01018C002250
:10008F0075900FE590640F605F7F0A7E0012017715
:10009F00E590540F24F9601A24FC601124FE6008C7
:1000AF00147012E4F519800D751901800875190285
:1000BF0080037519037590F0E59054F02490601B40
:1000CF0024C0601224E0600924F07012E4F51A8055
:1000DF000D751A018008751A028003751A03E51948
:0800EF0025E025E0251AF508C3
:0100F70022E6
:1000F80012008FE508120151012200012601012A90
:1001080002012E04013205013606013A08013E09B2
:1001180001420A01460D000001487C0180227C0250
:10012800801E7C03801A7C0480167C0580127C0665
:10013800800E7C07800A7C0880067C098002E4FC2B
:0901480074092CF8E6F5A080A76B
:03000000020003F8
:0C000300787FE4F6D8FD75811A02004AEF
:10015100D083D082F8E4937012740193700DA3A33D
:1001610093F8740193F5828883E473740293686051
:06017100EFA3A3A380DF51
:10000F000200F8E493A3F8E493A34003F68001F20F
:10001F0008DFF48029E493A3F85407240CC8C333F2
:10002F00C4540F4420C8834004F456800146F6DFC1
:10003F00E4800B010204081020408090018DE47EC3
:10004F00019360BCA3FF543F30E509541FFEE493B6
:10005F00A360010ECF54C025E060A840B8E493A37D
:10006F00FAE493A3F8E493A3C8C582C8CAC583CAA8
:10007F00F0A3C8C582C8CAC583CADFE9DEE780BE60
:0101A200005C
:00000001FF
