:10010E0010093F065B4F666D7D077F6F777C395E0A
:02011E007971F5
:1000F800EF1FAA0670011E4A600BE4FDEDC3946E63
:0501080050EE0D80F730
:01010D0022CF
:10008F0075900FE590640F605F7F0A7E001200F895
:10009F00E590540F24F9601A24FC601124FE6008C7
:1000AF00147012E4F519800D751901800875190285
:1000BF0080037519037590F0E59054F02490601B40
:1000CF0024C0601224E0600924F07012E4F51A8055
:1000DF000D751A018008751A028003751A03E51948
:0800EF0025E025E0251AF508C3
:0100F70022E6
:0D01210012008F74092508F8E6F5A080F3A0
:03000000020003F8
:0C000300787FE4F6D8FD75811A02004AEF
:10000F00020121E493A3F8E493A34003F68001F2E5
:10001F0008DFF48029E493A3F85407240CC8C333F2
:10002F00C4540F4420C8834004F456800146F6DFC1
:10003F00E4800B010204081020408090010EE47E42
:10004F00019360BCA3FF543F30E509541FFEE493B6
:10005F00A360010ECF54C025E060A840B8E493A37D
:10006F00FAE493A3F8E493A3C8C582C8CAC583CAA8
:10007F00F0A3C8C582C8CAC583CADFE9DEE780BE60
:0101200000DE
:00000001FF
